:020000040800F2
:1000000048100020D51E0008111E0008131E00080D
:10001000151E0008171E0008191E00080000000029
:10002000000000000000000000000000F11E0008B9
:100030001B1E000800000000F51E00081D1E000821
:10004000F91E0008FD1E0008011F0008051F00081A
:10005000091F00080D1F0008111F0008151F0008C8
:10006000191F00081D1F0008211F0008251F000878
:10007000291F00082D1F0008311F0008351F000828
:10008000391F00083D1F0008411F0008451F0008D8
:10009000491F00084D1F0008511F0008551F000888
:1000A000591F00085D1F0008611F0008291E000875
:1000B000651F0008691F00086D1F0008711F0008F8
:1000C000751F0008791F00087D1F0008811F0008A8
:1000D000851F0008891F00088D1F0008911F000858
:1000E000951F0008991F00089D1F0008A11F000808
:1000F000A51F0008A91F0008AD1F0008B11F0008B8
:10010000B51F0008B91F0008BD1F0008C11F000867
:10011000C51F0008C91F0008CD1F0008D11F000817
:10012000D51F0008D91F0008DD1F0008E11F0008C7
:1001300038B5040000252078C00740F10D81DFF8B4
:10014000E40B006810F00C0004280BD0DFF8D40B8F
:10015000006810F00C0008282AD1DFF8C80B0068EE
:10016000C00325D54FF48040B0FA80F050F0200055
:10017000C0B24009C0B2012803D1DFF8AC0B00685F
:1001800006E04FF48040B0FA80F0DFF8A00B006882
:100190004FF48041B1FA81F111F01F01C840C0074E
:1001A00040F1DA806068002840F0D6800120A6E3A4
:1001B000DFF8740B006830F48030DFF86C1B0860E7
:1001C000DFF8640B006830F48020DFF85C1B086007
:1001D00000F0F1FD05004FF48040B0FA80F050F0DF
:1001E0002000C0B24009C0B2012803D1DFF8380BAB
:1001F000006806E04FF48040B0FA80F0DFF82C0B86
:1002000000684FF48041B1FA81F111F01F01C8403C
:10021000C00706D500F0CFFD401B6528DBD30320C7
:100220006DE36068B0F5803F08D1DFF8FC0A006834
:1002300050F48030DFF8F01A086038E06068002879
:1002400010D1DFF8E40A006830F48030DFF8D81A03
:100250000860DFF8D40A006830F48020DFF8C81A9C
:10026000086024E06068B0F5A02F10D1DFF8B80A6C
:10027000006850F48020DFF8B01A0860DFF8A80AA0
:10028000006850F48030DFF8A01A08600FE0DFF853
:10029000980A006830F48030DFF88C1A0860DFF8C4
:1002A000880A006830F48020DFF87C1A08606068F3
:1002B000002828D000F07FFD05004FF48040B0FA00
:1002C00080F050F02000C0B24009C0B2012803D134
:1002D000DFF8540A006806E04FF48040B0FA80F07E
:1002E000DFF8480A00684FF48041B1FA81F111F05B
:1002F0001F01C840C0072FD400F05DFD401B6528DA
:10030000DBD30320FBE200F056FD05004FF48040F4
:10031000B0FA80F050F02000C0B24009C0B201280D
:1003200003D1DFF8040A006806E04FF48040B0FA19
:1003300080F0DFF8F80900684FF48041B1FA81F1EC
:1003400011F01F01C840C00706D500F034FD401B66
:100350006528DBD30320D2E22078800740F1BF80FC
:10036000DFF8C009006810F00C0F0BD0DFF8B409FB
:10037000006810F00C00082839D1DFF8A8090068DF
:10038000C00334D45FF08040B0FA80F050F0200019
:10039000C0B24009C0B2012803D1DFF88C0900685F
:1003A00006E05FF08040B0FA80F0DFF88009006876
:1003B0005FF08041B1FA81F111F01F01C840C00720
:1003C00004D52069012801D0012098E2DFF85809FE
:1003D00000685FF0F851B1FA81F130F0F80062691D
:1003E00012FA01F10843DFF84019086077E020694C
:1003F000002842D001205FF00041B1FA81F1DFF81E
:10040000302942F8210000F0D6FC05005FF0804062
:10041000B0FA80F050F02000C0B24009C0B201280C
:1004200003D1DFF80409006806E05FF08040B0FA0D
:1004300080F0DFF8F80800685FF08041B1FA81F1E0
:1004400011F01F01C840C00706D400F0B4FC401BE7
:100450000328DBD3032052E2DFF8CC0800685FF00A
:10046000F851B1FA81F130F0F800626912FA01F145
:100470000843DFF8B418086031E000205FF0004165
:10048000B1FA81F1DFF8A82842F8210000F093FCCE
:1004900005005FF08040B0FA80F050F02000C0B25C
:1004A0004009C0B2012803D1DFF87C08006806E0EB
:1004B0005FF08040B0FA80F0DFF8700800685FF00D
:1004C0008041B1FA81F111F01F01C840C00706D583
:1004D00000F071FC401B0328DBD303200FE22078DF
:1004E000000754D5A06900282AD001205FF0004100
:1004F000B1FA81F1DFF83C2842F8210000F05BFC02
:1005000005005FF08040B0FA80F05FF08040B0FA04
:1005100080F0DFF8180800685FF08041B1FA81F1DF
:1005200011F01F01C840C00706D400F044FC401B76
:100530000328E6D30320E2E1012000F03FFC26E09F
:1005400000205FF00041B1FA81F1DFF8E82742F8BE
:10055000210000F030FC05005FF08040B0FA80F030
:100560005FF08040B0FA80F0DFF8C00700685FF00D
:100570008041B1FA81F111F01F01C840C00706D5D2
:1005800000F019FC401B0328E6D30320B7E12078D4
:10059000400740F1FE80DFF8A007006850F080506F
:1005A000DFF894170860DFF89007006810F08050BB
:1005B00000900098DFF88407006850F48070DFF83E
:1005C0007C17086000F0F7FB0500DFF87007006893
:1005D000C00506D400F0EFFB401B6528F5D30320CF
:1005E0008DE1DFF85C07006840084000DFF8501735
:1005F0000860DFF84C07006830F00400DFF84017AF
:10060000086000F0D8FB05005FF08040B0FA80F091
:100610005FF08040B0FA80F050F04000C0B2400976
:10062000C0B2022803D1DFF81807006802E0DFF843
:10063000FC0600685FF08041B1FA81F111F01F0102
:10064000C840C00708D500F0B6FB401B41F2893115
:100650008842D9D3032052E1E068012808D1DFF8AD
:10066000E006006850F00100DFF8D416086037E0BB
:10067000E068002810D1DFF8C80600684008400094
:10068000DFF8BC160860DFF8B806006830F0040038
:10069000DFF8AC16086023E0E068052810D1DFF829
:1006A000A006006850F00400DFF894160860DFF838
:1006B0009006006850F00100DFF8841608600FE033
:1006C000DFF87C06006840084000DFF87416086018
:1006D000DFF86C06006830F00400DFF8641608608C
:1006E000E06800282AD000F066FB05005FF080403B
:1006F000B0FA80F05FF08040B0FA80F050F0400037
:10070000C0B24009C0B2022803D1DFF83406006845
:1007100002E0DFF8180600685FF08041B1FA81F16D
:1007200011F01F01C840C00733D400F044FB401B48
:1007300041F289318842D9D30320E0E000F03BFB4D
:1007400005005FF08040B0FA80F05FF08040B0FAC2
:1007500080F050F04000C0B24009C0B2022803D17E
:10076000DFF8DC05006802E0DFF8C00500685FF034
:100770008041B1FA81F111F01F01C840C00708D5CE
:1007800000F019FB401B41F289318842D9D3032084
:10079000B5E0E069002800F0B180DFF88805006866
:1007A00010F00C00082800F0A780E069022875D13D
:1007B00000208021B1FA81F1DFF8742542F8210090
:1007C00000F0F9FA05004020B0FA80F050F0200067
:1007D000C0B24009C0B2012803D1DFF84C0500685F
:1007E00005E04020B0FA80F0DFF8400500684021C5
:1007F000B1FA81F111F01F01C840C00706D500F021
:10080000DAFA401B0328DED3032078E0206AB0F533
:10081000803F09D1DFF80C05006830F40030A16892
:100820000843DFF800150860DFF8F804006830F4CA
:100830007410216A0843616A0843DFF8E81408600D
:1008400001208021B1FA81F1DFF8E42442F821008F
:1008500000F0B1FA05004020B0FA80F050F020001E
:10086000C0B24009C0B2012803D1DFF8BC0400685F
:1008700005E04020B0FA80F0DFF8B00400684021C5
:10088000B1FA81F111F01F01C840C00736D400F061
:1008900092FA401B0328DED3032030E000208021A1
:1008A000B1FA81F1DFF8882442F8210000F083FAE0
:1008B00005004020B0FA80F050F02000C0B240099E
:1008C000C0B2012803D1DFF86004006805E04020D1
:1008D000B0FA80F0DFF8540400684021B1FA81F1E9
:1008E00011F01F01C840C00708D500F064FA401B92
:1008F0000328DED3032002E0012000E0002032BD07
:1009000070B504000D000026DFF83804006810F010
:100910000700A84280F0CE80DFF828040068C008F5
:10092000C0002843DFF81C140860DFF818040068D2
:1009300010F00700A84201D0012099E1207880073B
:1009400009D5DFF80404006830F0F000A16808431E
:10095000DFF8F41308602078C00740F16E8160680A
:10096000012820D14FF48040B0FA80F050F02000F0
:10097000C0B24009C0B2012803D1DFF8AC0300685F
:1009800006E04FF48040B0FA80F0DFF8A003006882
:100990004FF48041B1FA81F111F01F01C840C00746
:1009A00043D4012064E1606802281DD14020B0FAE0
:1009B00080F050F02000C0B24009C0B2012803D13D
:1009C000DFF86403006805E04020B0FA80F0DFF84B
:1009D0005C0300684021B1FA81F111F01F01C840A9
:1009E000C00722D4012043E15FF08040B0FA80F0DC
:1009F00050F02000C0B24009C0B2012803D1DFF896
:100A00002803006806E05FF08040B0FA80F0DFF86D
:100A10001C0300685FF08041B1FA81F111F01F0101
:100A2000C840C00701D4012022E1DFF81C030068A0
:100A30008008800061680843DFF80C13086000F04C
:100A4000BAF906006068012810D1DFF8FC020068DE
:100A500010F00C00042800F0F08000F0ACF9801BCE
:100A600041F289318842F0D3032001E16068022815
:100A700010D1DFF8D402006810F00C00082800F054
:100A8000DC8000F098F9801B41F289318842F0D374
:100A90000320EDE0DFF8B002006810F00C0F00F06A
:100AA000CC8000F088F9801B41F289318842F1D373
:100AB0000320DDE02078800709D5DFF88C0200688C
:100AC00030F0F000A1680843DFF87C12086020785D
:100AD000C00740F1A380606801281FD14FF4804017
:100AE000B0FA80F050F02000C0B24009C0B2012836
:100AF00002D18D48006806E04FF48040B0FA80F0E3
:100B0000DFF8280200684FF48041B1FA81F111F05A
:100B10001F01C840C00741D40120A9E06068022835
:100B20001CD14020B0FA80F050F02000C0B2400943
:100B3000C0B2012802D17C48006805E04020B0FA2C
:100B400080F0DFF8E80100684021B1FA81F111F08E
:100B50001F01C840C00721D4012089E05FF0804018
:100B6000B0FA80F050F02000C0B24009C0B20128B5
:100B700002D16D48006806E05FF08040B0FA80F076
:100B8000DFF8A80100685FF08041B1FA81F111F04F
:100B90001F01C840C00701D4012069E0DFF8A801A7
:100BA00000688008800061680843DFF89C110860D5
:100BB00000F001F90600606801280FD1DFF8880114
:100BC000006810F00C00042828D000F0F4F8801B16
:100BD00041F289318842F1D3032049E0606802285C
:100BE0000ED15948006810F00C00082816D000F00B
:100BF000E2F8801B41F289318842F2D3032037E0CA
:100C00005148006810F00C0F08D000F0D4F8801B99
:100C100041F289318842F3D3032029E04948006832
:100C2000C008C0002843474908604648006810F0E3
:100C30000700A84201D001201AE02078400707D51C
:100C40004148006830F4E060E16808433E490860CC
:100C50002078000708D53C48006830F460502169CE
:100C600050EAC10038490860002000F08CF80020EC
:100C700070BDF0B585B001A83449102200F0B0F87D
:100C800033480088ADF80000002100220023002432
:100C90000020244D2D68290011F00C05042D02D0F0
:100CA000082D03D026E02B4D280025E001AD11F4DE
:100CB00070164FF47057B7FA87F7FE40755D2C0039
:100CC000CD0311D5174D2D686E4615F400354FF440
:100CD0008047B7FA87F7FD40AD5D2A001D4DB5FB93
:100CE000F2F565432B0003E01B4D05FB04F52B00DB
:100CF000180001E0174D280005B0F0BD80B5FFF7E2
:100D0000B8FF084909685FF07062B2FA82F2134BCB
:100D100011F0F001D140C95CC84011490860104889
:100D2000006802BD0410024000100240241002407E
:100D300000004242800442421C1002400070004009
:100D4000201002400020024004100240B41E00089F
:100D5000360E000800127A0000093D00C41E00088B
:100D60000000002080B51C48006850F010001A49AF
:100D70000860032000F0C8F8002000F004F800F03C
:100D80000FF9002002BD10B50400FFF7B7FF4FF4C4
:100D90007A71B0FBF1F000F0D7F8002221005FF08B
:100DA000FF3000F0B7F8002010BD0C480068401C70
:100DB0000A490860704709480068704711B581B05A
:100DC0000024FFF7F8FF0400FFF7F5FF001B01996F
:100DD0008842F9D313BD00000020024040000020EB
:100DE000103A07D330B4B1E83810103AA0E8381000
:100DF000F9D230BC530724BFB1E80810A0E80810AE
:100E000044BF51F8043B40F8043BD20724BF31F8FB
:100E1000022B20F8022B44BF0B7803707047083A6E
:100E200007D3B1E80810083A40F8043B40F804CB77
:100E3000F7D25307E4E7010210F007024D4B1B689D
:100E400019004FF6FF0319404B4B53EA0223194395
:100E5000484B1960704747480068C0F3022070474C
:100E6000012110F01F029140444A40B2430942F868
:100E70002310704710B440B2002808D50A01404B37
:100E800040B210F00F04E31803F8042C03E00A0149
:100E90003C4B40B2C25410BC704770B4030013F016
:100EA0000704D4F10706052E01D3042001E0D4F194
:100EB0000700261D072E01D2002500E0E51E0126B1
:100EC00016FA00F0401E0840A8400121A940491E22
:100ED0001140084370BC704710B50400601EB0F1AB
:100EE000807F01D301200EE0601E274908600F219A
:100EF0005FF0FF30FFF7BEFF0020244908600720A5
:100F000023490860002010BD10B504002000FFF741
:100F100093FF10BDF8B504000D0016000027FFF781
:100F20009AFF0700320029003800FFF7B6FF0100E2
:100F3000200040B2FFF79EFFF1BD10B50400200075
:100F400040B2FFF78DFF10BD10B504002000FFF781
:100F5000C3FF10BD042806D10D49096851F00401F2
:100F60000B4A116005E00A49096831F00401084A9A
:100F7000116070470CED00E00000FA0500E100E0B0
:100F800018ED00E000E400E014E000E018E000E00C
:100F900010E000E080B500F001F801BD70470000EE
:100FA00080B51748006850F00100154908601448E2
:100FB000006810F00100009000980520FFF7A4FFE2
:100FC000002200217FF00B00FFF7A4FF0022002188
:100FD0007FF00A00FFF79EFF002200217FF009004A
:100FE000FFF798FF002200217FF00300FFF792FF38
:100FF000002200215FF0FF30FFF78CFF01BD00BF32
:101000001810024010B50400002C01D1012014E09A
:1010100094F93900002805D1002084F83800200018
:1010200000F042FC022084F83900211D206800F005
:1010300005FA012084F83900002010BD01000220CB
:1010400081F839000868006850F001000A681060F3
:10105000012081F839000020704710B50400002CF1
:1010600001D1012014E094F93900002805D10020B5
:1010700084F83800200000F00CF8022084F83900D1
:10108000211D206800F0DAF9012084F839000020E1
:1010900010BD704738B504000D002800002806D0A8
:1010A00004280BD0082810D00C2815D01BE020688D
:1010B000C06850F002002168C86014E02068C06871
:1010C00050F004002168C8600DE02068C06850F04E
:1010D00008002168C86006E02068C06850F0100071
:1010E0002168C860FFE701222900206800F01AFB90
:1010F0002068DFF83810884204D02068DFF830100C
:10110000884201D1012000E00020C0B2002805D0B3
:101110002068406C50F400402168486420680068F2
:1011200050F0010021680860002032BD002C014011
:101130000034014010B504002068006980071AD50A
:101140002068C068800716D57FF00200216808611A
:10115000012020762068806910F0030F03D0200062
:1011600000F069F905E0200000F003FC200000F029
:1011700063F9002020762068006940071AD52068AE
:10118000C068400716D57FF004002168086102207E
:1011900020762068806910F4407F03D0200000F0A2
:1011A0004AF905E0200000F0E4FB200000F044F9DB
:1011B000002020762068006900071AD52068C068E2
:1011C000000716D57FF0080021680861042020760A
:1011D0002068C06910F0030F03D0200000F02BF945
:1011E00005E0200000F0C5FB200000F025F90020FC
:1011F000207620680069C0061AD52068C068C0063D
:1012000016D57FF01000216808610820207620683C
:10121000C06910F4407F03D0200000F00CF905E015
:10122000200000F0A6FB200000F006F90020207648
:1012300020680069C0070AD52068C068C00706D5C5
:101240007FF0010021680861200000F0F3F82068B9
:10125000006900060AD52068C068000606D57FF040
:10126000800021680861200000F0E6FB206800692A
:1012700040060AD52068C068400606D57FF04000C9
:1012800021680861200000F0D8F820680069800615
:101290000AD52068C068800606D57FF02000216846
:1012A0000861200000F0C7FB10BD70B504000D0000
:1012B000160094F93800012801D102202AE001200B
:1012C00084F83800022084F839003000002806D065
:1012D000042809D008280CD00C280FD013E02900CE
:1012E000206800F0EFF80EE02900206800F023F9F4
:1012F00009E02900206800F05CF904E0290020687A
:1013000000F094F9FFE7012084F83900002084F808
:101310003800002070BD70B504000D00002694F95F
:101320003800012801D1022083E0012084F8380030
:10133000022084F8390020688068060036F07706BD
:1013400036F47F46206886602868002856D010282A
:1013500059D020285CD030285FD0402844D0502875
:101360002ED0602836D070280DD0B0F5805F03D025
:10137000B0F5005F17D055E020688068C008C00055
:10138000216888604EE0EB686A68A968206800F010
:10139000BBF920688068060036F0770656F07706BD
:1013A000206886603EE0EB686A68A968206800F003
:1013B000ABF92068806850F480402168886031E093
:1013C000EA686968206800F067F95021206800F039
:1013D00090F927E0EA686968206800F073F96021F5
:1013E000206800F086F91DE0EA686968206800F06E
:1013F00053F94021206800F07CF913E000212068B7
:1014000000F077F90EE01021206800F072F909E091
:101410002021206800F06DF904E03021206800F000
:1014200068F9FFE7012084F83900002084F83800CB
:10143000002070BD704770477047704700220368F6
:101440001A00DFF84032984212D0DFF83C3298425E
:101450000ED0B0F1804F0BD0DFF83032984207D079
:10146000DFF82C32984203D0DFF82832984203D1BB
:1014700032F070024B681A43824B98420ED0824B76
:1014800098420BD0B0F1804F08D0804B984205D0E5
:101490007F4B984202D07F4B984203D132F4407286
:1014A000CB681A4302608B68C3620B688362754B1A
:1014B000984202D0744B984201D10B690363012317
:1014C0004361704730B4002300240022056A6D0890
:1014D0006D000562056A2C0045682A0085692B00AD
:1014E00033F070039B089B000D682B4334F002041B
:1014F0008D682C43634DA84202D0634DA84205D1AC
:1015000034F00804CD682C4334F004045D4DA84247
:1015100002D05D4DA84207D132F4807232F40072DD
:101520004D692A438D692A43426083614D68456352
:10153000046230BC704730B4002300240022056AE6
:1015400035F010050562056A2C0045682A0085699A
:101550002B0033F4E04333F440730D6853EA052362
:1015600034F020048D6854EA0514464DA84202D098
:10157000454DA84206D134F08004CD6854EA0514E4
:1015800034F040043F4DA84202D03F4DA84209D15B
:1015900032F4806232F400624D6952EA85028D694C
:1015A00052EA8502426083614D688563046230BC03
:1015B000704730B4002300240022056A35F480759A
:1015C0000562056A2C0045682A00C5692B0033F0C6
:1015D00070039B089B000D682B4334F400748D68E6
:1015E00054EA0524274DA84202D0274DA84206D12F
:1015F00034F40064CD6854EA052434F48064214D49
:10160000A84202D0204DA84209D132F4805232F4CF
:1016100000524D6952EA05128D6952EA0512426084
:10162000C3614D68C563046230BC704730B40022AA
:1016300000230024056A35F480550562056A2B00F5
:1016400045682C00C5692A0032F4E04232F4407249
:101650000D6852EA052233F400538D6853EA0533CE
:10166000084DA84202D0084DA84204D134F4804469
:101670004D6954EA85144460C2614D680564036293
:1016800030BC7047002C0140003401400004004091
:1016900000080040000C004030B400230024056A1C
:1016A0002C00056A6D086D00056285692B0033F01A
:1016B000F00353EA021334F00A040C43836104621A
:1016C00030BC704730B400230024056A35F01005A3
:1016D000056285692B00056A2C0033F4704353EAD8
:1016E000023334F0A00454EA01148361046230BC74
:1016F0007047002283681A0032F0700289B251F0FC
:1017000007031A438260704730B4002485682C00B8
:1017100034F47F4452EA010555EA03252C438460E2
:1017200030BC704730B4002301248C402300046A8D
:101730009C430462046A12FA01F52C43046230BC33
:101740007047000000B585B06148006850F00400A3
:101750005F4908605E48006810F00400009000983F
:101760005B48006850F00800594908605848006814
:1017700010F00800009000985548006850F00800EC
:10178000534908605248006810F008000090009823
:101790004FF480700190022002900320049001A970
:1017A0004C4800F04BF900224FF400514A4800F039
:1017B000B0FA4FF4005001900120029003200490F1
:1017C00001A9454800F03AF900224FF4804142480F
:1017D00000F09FFA4FF48040019001200290032016
:1017E000049001A93C4800F029F905B000BD00B5FE
:1017F00095B03A483A4908600320394948600020CA
:10180000374988604FF6FF703549C8600020344979
:1018100008610020324948613148FFF7F3FB4FF47B
:101820008050109010A92E48FFF775FD2C48FFF747
:1018300014FC00200090002001906946284800F028
:10184000CDF80020099000200A9000200B90002085
:101850000C9000200D904FF400500E9000200F903F
:1018600009A91F4800F096F8302002901D48008812
:10187000039000200490082005900020069000208E
:10188000079000200890002202A91548FFF70DFDDF
:10189000FFF758FF002200211B20FFF73BFB1B2016
:1018A000FFF74BFB15B000BD81B001680B4A9142B8
:1018B0000BD10749096851F40061054A11600449D8
:1018C000096811F400610091009901B070470000AF
:1018D0001810024000080140000C0140002C01409B
:1018E000040000204400002000B58FB001200590C6
:1018F0005FF4803006900020079002200C905FF487
:1019000080300D905FF4E0100E9005A8FEF710FCFB
:101910000F20009002200190002002904FF4806080
:1019200003900020049002216846FEF7E9FFFFF7CC
:10193000E5F94FF47A71B0FBF1F0FFF705FB0420F5
:10194000FFF708FB002200215FF0FF30FFF7E2FA0B
:101950000FB000BD80B5FFF705FAFFF7C5FFFFF731
:1019600046FF0A48FFF76AFB00210848FFF792FB91
:10197000FEE7064A1268526A110089B2044A1288C8
:101980005218024B1B685A63704700000400002085
:1019900044000020020092F93800012801D1022001
:1019A0001BE0012082F83800022082F83900086824
:1019B0004B6818438B681843CB6818430B6918436E
:1019C0004B6918438B69184313685864012082F8E7
:1019D0003900002082F8380000207047020092F998
:1019E0003800012801D1022024E0012082F83800CB
:1019F000022082F839001068406830F070001368E7
:101A00005860106840680B68184313685860106885
:101A1000806830F0800013689860106880684B68B8
:101A2000184313689860012082F83900002082F87A
:101A30003800002070477047704700002DE9F841DA
:101A400000230024002500265FF0000E5FF0000C4C
:101A50006246102A80F05B815FF0010C1CFA02FCE8
:101A60006346D1F800C013EA0C0C64469C4240F077
:101A70004C81D1F804C0BCF1000F3DD0BCF1010F86
:101A800024D0BCF1020F2BD0BCF1030F4CD0BCF121
:101A9000110F1FD0BCF1120F28D0DFF88C82C44583
:101AA0002AD0DFF88882C44526D0DFF88482C44576
:101AB00022D0DFF88082C4451ED0DFF87C82C44586
:101AC0001AD0DFF87882C44516D031E0D1F80CC0C6
:101AD00066462DE0D1F80CC01CF1040C664627E0E8
:101AE000D1F80CC01CF1080C664621E0D1F80CC0FE
:101AF0001CF10C0C66461BE0D1F808C0BCF1000FCD
:101B000003D15FF0040C66460DE0D1F808C0BCF1CB
:101B1000010F04D15FF0080C6646036103E05FF03B
:101B2000080C6646436103E05FF0000C6646FFE781
:101B3000FF2C01D8070000E0071DFF2C02D85FEA48
:101B4000820E03E0B2F1080C5FEA8C0ED7F800C0F9
:101B50005FF00F0818FA0EF83CEA080C16FA0EF8B7
:101B600058EA0C0CC7F800C0D1F804C05FEACC0CEE
:101B700040F1CB80DFF8C8C1DCF800C05CF0010C9C
:101B8000DFF8BC81C8F800C0DFF8B4C1DCF800C0E1
:101B90001CF00108CDF80080DDF800C0DFF8A4C11A
:101BA0005FEA92085CF828C065465FF00F0C12F0FF
:101BB00003085FFA88F85FEA88081CFA08FC35EA2F
:101BC0000C05DFF884C1604502D15FF0000C24E011
:101BD000DFF878C1604502D15FF0010C1DE0DFF84D
:101BE00070C1604502D15FF0020C16E0DFF864C1FD
:101BF000604502D15FF0030C0FE0DFF85CC1604587
:101C000002D15FF0040C08E0DFF850C1604502D15A
:101C10005FF0050C01E05FF0060C12F003085FFABC
:101C200088F85FEA88081CFA08FC5CEA0505DFF81A
:101C300014C15FEA92084CF82850D1F804C05FEA5A
:101C4000CC3C0AD5DFF818C1DCF800C054EA0C0C13
:101C5000DFF80C81C8F800C009E0DFF804C1DCF847
:101C600000C03CEA040CDFF8F880C8F800C0D1F8E6
:101C700004C05FEA8C3C0AD5DFF8E8C0DCF800C09D
:101C800054EA0C0CDFF8DC80C8F800C009E0DFF88B
:101C9000D4C0DCF800C03CEA040CDFF8C880C8F807
:101CA00000C0D1F804C05FEACC2C0AD5DFF8B8C078
:101CB000DCF800C054EA0C0CDFF8AC80C8F800C0B7
:101CC00009E0DFF8A4C0DCF800C03CEA040CDFF84F
:101CD0009880C8F800C0D1F804C05FEA8C2C0AD5FF
:101CE000DFF888C0DCF800C054EA0C0CDFF87C8018
:101CF000C8F800C009E0DFF874C0DCF800C03CEAB6
:101D0000040CDFF86880C8F800C0521CA1E6BDE8EA
:101D1000F18152B2002A02D089B2016102E089B297
:101D20000B04036170470000000011100000121046
:101D300000002110000022100000311000003210BD
:101D4000181002400800014000080140000C01404A
:101D5000001001400014014000180140001C014027
:101D60000004014004040140080401400C04014047
:101D70001348006850F001001149086011480068DC
:101D8000114908400F4908600D4800680F49084094
:101D90000B4908600A48006830F480200849086050
:101DA0000848006830F4FE00064908605FF41F0030
:101DB000074908605FF0006006490860704700004E
:101DC00000100240041002400000FFF8FFFFF6FE82
:101DD0000810024008ED00E030B5016842688468F0
:101DE000091801EB5203D20748BF4C440C3099420A
:101DF00000D130BD11F9012B11F8015B002A04F864
:101E0000015B02D5521CF9D1F1E7521EF4D5EEE781
:101E10007047FEE7FEE7FEE7FEE7FEE780B5FEF768
:101E2000C4FFFFF7B7F801BD80B50248FFF782F99C
:101E300001BD00000400002010B5074979441831A5
:101E4000064C7C44163404E00A68081D5118884783
:101E50000146A142F8D110BD0800000014000000A6
:101E600079FFFFFF80010000140000000000002047
:101E700000F00BF8002801D0FFF7DEFF0020C0467D
:101E8000C046FFF767FD00F002F80120704700F040
:101E900001B800000746384600F002F8FBE70000F2
:101EA00080B5C046C046024A11001820ABBEFBE711
:101EB0002600020002030405060708090A0B0C0DA0
:101EC0000E0F1010000000000102030401020304C1
:101ED000060708090148804701480047711D0008AE
:101EE000E51E0008C046C046C046C046FFF7C0FF1A
:101EF000FFF7FEBFFFF7FEBFFFF7FEBFFFF7FEBF16
:101F0000FFF7FEBFFFF7FEBFFFF7FEBFFFF7FEBF05
:101F1000FFF7FEBFFFF7FEBFFFF7FEBFFFF7FEBFF5
:101F2000FFF7FEBFFFF7FEBFFFF7FEBFFFF7FEBFE5
:101F3000FFF7FEBFFFF7FEBFFFF7FEBFFFF7FEBFD5
:101F4000FFF7FEBFFFF7FEBFFFF7FEBFFFF7FEBFC5
:101F5000FFF7FEBFFFF7FEBFFFF7FEBFFFF7FEBFB5
:101F6000FFF7FEBFFFF7FEBFFFF7FEBFFFF7FEBFA5
:101F7000FFF7FEBFFFF7FEBFFFF7FEBFFFF7FEBF95
:101F8000FFF7FEBFFFF7FEBFFFF7FEBFFFF7FEBF85
:101F9000FFF7FEBFFFF7FEBFFFF7FEBFFFF7FEBF75
:101FA000FFF7FEBFFFF7FEBFFFF7FEBFFFF7FEBF65
:101FB000FFF7FEBFFFF7FEBFFFF7FEBFFFF7FEBF55
:101FC000FFF7FEBFFFF7FEBFFFF7FEBFFFF7FEBF45
:101FD000FFF7FEBFFFF7FEBFFFF7FEBFFFF7FEBF35
:0E1FE000FFF7FEBF0300A24A04C00001F40197
:0400000508001EE5EC
:00000001FF
