:020000040800F2
:1000000080100020B92900088129000883290008F0
:1000100085290008872900088929000800000000B8
:10002000000000000000000000000000D5290008CA
:100030008B29000800000000D92900088D2900083C
:10004000DD290008E1290008E5290008E929000860
:10005000ED290008F1290008F5290008F929000810
:10006000FD290008012A0008052A0008092A0008BD
:100070000D2A0008112A0008152A0008192A00086C
:100080001D2A0008212A0008252A0008292A00081C
:100090002D2A0008312A0008352A0008392A0008CC
:1000A0003D2A0008412A0008452A0008A11300083B
:1000B000492A00084D2A0008512A0008552A00083C
:1000C000592A00085D2A0008612A0008652A0008EC
:1000D000692A00086D2A0008712A0008752A00089C
:1000E000792A00087D2A0008812A0008852A00084C
:1000F000892A00088D2A0008912A0008952A0008FC
:10010000992A00089D2A0008A12A0008A52A0008AB
:10011000A92A0008AD2A0008B12A0008B52A00085B
:10012000B92A0008BD2A0008C12A0008C52A00080B
:1001300038B5040000252078C00740F10D81DFF8B4
:10014000E40B006810F00C0004280BD0DFF8D40B8F
:10015000006810F00C0008282AD1DFF8C80B0068EE
:10016000C00325D54FF48040B0FA80F050F0200055
:10017000C0B24009C0B2012803D1DFF8AC0B00685F
:1001800006E04FF48040B0FA80F0DFF8A00B006882
:100190004FF48041B1FA81F111F01F01C840C0074E
:1001A00040F1DA806068002840F0D6800120A6E3A4
:1001B000DFF8740B006830F48030DFF86C1B0860E7
:1001C000DFF8640B006830F48020DFF85C1B086007
:1001D00000F0F1FD05004FF48040B0FA80F050F0DF
:1001E0002000C0B24009C0B2012803D1DFF8380BAB
:1001F000006806E04FF48040B0FA80F0DFF82C0B86
:1002000000684FF48041B1FA81F111F01F01C8403C
:10021000C00706D500F0CFFD401B6528DBD30320C7
:100220006DE36068B0F5803F08D1DFF8FC0A006834
:1002300050F48030DFF8F01A086038E06068002879
:1002400010D1DFF8E40A006830F48030DFF8D81A03
:100250000860DFF8D40A006830F48020DFF8C81A9C
:10026000086024E06068B0F5A02F10D1DFF8B80A6C
:10027000006850F48020DFF8B01A0860DFF8A80AA0
:10028000006850F48030DFF8A01A08600FE0DFF853
:10029000980A006830F48030DFF88C1A0860DFF8C4
:1002A000880A006830F48020DFF87C1A08606068F3
:1002B000002828D000F07FFD05004FF48040B0FA00
:1002C00080F050F02000C0B24009C0B2012803D134
:1002D000DFF8540A006806E04FF48040B0FA80F07E
:1002E000DFF8480A00684FF48041B1FA81F111F05B
:1002F0001F01C840C0072FD400F05DFD401B6528DA
:10030000DBD30320FBE200F056FD05004FF48040F4
:10031000B0FA80F050F02000C0B24009C0B201280D
:1003200003D1DFF8040A006806E04FF48040B0FA19
:1003300080F0DFF8F80900684FF48041B1FA81F1EC
:1003400011F01F01C840C00706D500F034FD401B66
:100350006528DBD30320D2E22078800740F1BF80FC
:10036000DFF8C009006810F00C0F0BD0DFF8B409FB
:10037000006810F00C00082839D1DFF8A8090068DF
:10038000C00334D45FF08040B0FA80F050F0200019
:10039000C0B24009C0B2012803D1DFF88C0900685F
:1003A00006E05FF08040B0FA80F0DFF88009006876
:1003B0005FF08041B1FA81F111F01F01C840C00720
:1003C00004D52069012801D0012098E2DFF85809FE
:1003D00000685FF0F851B1FA81F130F0F80062691D
:1003E00012FA01F10843DFF84019086077E020694C
:1003F000002842D001205FF00041B1FA81F1DFF81E
:10040000302942F8210000F0D6FC05005FF0804062
:10041000B0FA80F050F02000C0B24009C0B201280C
:1004200003D1DFF80409006806E05FF08040B0FA0D
:1004300080F0DFF8F80800685FF08041B1FA81F1E0
:1004400011F01F01C840C00706D400F0B4FC401BE7
:100450000328DBD3032052E2DFF8CC0800685FF00A
:10046000F851B1FA81F130F0F800626912FA01F145
:100470000843DFF8B418086031E000205FF0004165
:10048000B1FA81F1DFF8A82842F8210000F093FCCE
:1004900005005FF08040B0FA80F050F02000C0B25C
:1004A0004009C0B2012803D1DFF87C08006806E0EB
:1004B0005FF08040B0FA80F0DFF8700800685FF00D
:1004C0008041B1FA81F111F01F01C840C00706D583
:1004D00000F071FC401B0328DBD303200FE22078DF
:1004E000000754D5A06900282AD001205FF0004100
:1004F000B1FA81F1DFF83C2842F8210000F05BFC02
:1005000005005FF08040B0FA80F05FF08040B0FA04
:1005100080F0DFF8180800685FF08041B1FA81F1DF
:1005200011F01F01C840C00706D400F044FC401B76
:100530000328E6D30320E2E1012000F03FFC26E09F
:1005400000205FF00041B1FA81F1DFF8E82742F8BE
:10055000210000F030FC05005FF08040B0FA80F030
:100560005FF08040B0FA80F0DFF8C00700685FF00D
:100570008041B1FA81F111F01F01C840C00706D5D2
:1005800000F019FC401B0328E6D30320B7E12078D4
:10059000400740F1FE80DFF8A007006850F080506F
:1005A000DFF894170860DFF89007006810F08050BB
:1005B00000900098DFF88407006850F48070DFF83E
:1005C0007C17086000F0F7FB0500DFF87007006893
:1005D000C00506D400F0EFFB401B6528F5D30320CF
:1005E0008DE1DFF85C07006840084000DFF8501735
:1005F0000860DFF84C07006830F00400DFF84017AF
:10060000086000F0D8FB05005FF08040B0FA80F091
:100610005FF08040B0FA80F050F04000C0B2400976
:10062000C0B2022803D1DFF81807006802E0DFF843
:10063000FC0600685FF08041B1FA81F111F01F0102
:10064000C840C00708D500F0B6FB401B41F2893115
:100650008842D9D3032052E1E068012808D1DFF8AD
:10066000E006006850F00100DFF8D416086037E0BB
:10067000E068002810D1DFF8C80600684008400094
:10068000DFF8BC160860DFF8B806006830F0040038
:10069000DFF8AC16086023E0E068052810D1DFF829
:1006A000A006006850F00400DFF894160860DFF838
:1006B0009006006850F00100DFF8841608600FE033
:1006C000DFF87C06006840084000DFF87416086018
:1006D000DFF86C06006830F00400DFF8641608608C
:1006E000E06800282AD000F066FB05005FF080403B
:1006F000B0FA80F05FF08040B0FA80F050F0400037
:10070000C0B24009C0B2022803D1DFF83406006845
:1007100002E0DFF8180600685FF08041B1FA81F16D
:1007200011F01F01C840C00733D400F044FB401B48
:1007300041F289318842D9D30320E0E000F03BFB4D
:1007400005005FF08040B0FA80F05FF08040B0FAC2
:1007500080F050F04000C0B24009C0B2022803D17E
:10076000DFF8DC05006802E0DFF8C00500685FF034
:100770008041B1FA81F111F01F01C840C00708D5CE
:1007800000F019FB401B41F289318842D9D3032084
:10079000B5E0E069002800F0B180DFF88805006866
:1007A00010F00C00082800F0A780E069022875D13D
:1007B00000208021B1FA81F1DFF8742542F8210090
:1007C00000F0F9FA05004020B0FA80F050F0200067
:1007D000C0B24009C0B2012803D1DFF84C0500685F
:1007E00005E04020B0FA80F0DFF8400500684021C5
:1007F000B1FA81F111F01F01C840C00706D500F021
:10080000DAFA401B0328DED3032078E0206AB0F533
:10081000803F09D1DFF80C05006830F40030A16892
:100820000843DFF800150860DFF8F804006830F4CA
:100830007410216A0843616A0843DFF8E81408600D
:1008400001208021B1FA81F1DFF8E42442F821008F
:1008500000F0B1FA05004020B0FA80F050F020001E
:10086000C0B24009C0B2012803D1DFF8BC0400685F
:1008700005E04020B0FA80F0DFF8B00400684021C5
:10088000B1FA81F111F01F01C840C00736D400F061
:1008900092FA401B0328DED3032030E000208021A1
:1008A000B1FA81F1DFF8882442F8210000F083FAE0
:1008B00005004020B0FA80F050F02000C0B240099E
:1008C000C0B2012803D1DFF86004006805E04020D1
:1008D000B0FA80F0DFF8540400684021B1FA81F1E9
:1008E00011F01F01C840C00708D500F064FA401B92
:1008F0000328DED3032002E0012000E0002032BD07
:1009000070B504000D000026DFF83804006810F010
:100910000700A84280F0CE80DFF828040068C008F5
:10092000C0002843DFF81C140860DFF818040068D2
:1009300010F00700A84201D0012099E1207880073B
:1009400009D5DFF80404006830F0F000A16808431E
:10095000DFF8F41308602078C00740F16E8160680A
:10096000012820D14FF48040B0FA80F050F02000F0
:10097000C0B24009C0B2012803D1DFF8AC0300685F
:1009800006E04FF48040B0FA80F0DFF8A003006882
:100990004FF48041B1FA81F111F01F01C840C00746
:1009A00043D4012064E1606802281DD14020B0FAE0
:1009B00080F050F02000C0B24009C0B2012803D13D
:1009C000DFF86403006805E04020B0FA80F0DFF84B
:1009D0005C0300684021B1FA81F111F01F01C840A9
:1009E000C00722D4012043E15FF08040B0FA80F0DC
:1009F00050F02000C0B24009C0B2012803D1DFF896
:100A00002803006806E05FF08040B0FA80F0DFF86D
:100A10001C0300685FF08041B1FA81F111F01F0101
:100A2000C840C00701D4012022E1DFF81C030068A0
:100A30008008800061680843DFF80C13086000F04C
:100A4000BAF906006068012810D1DFF8FC020068DE
:100A500010F00C00042800F0F08000F0ACF9801BCE
:100A600041F289318842F0D3032001E16068022815
:100A700010D1DFF8D402006810F00C00082800F054
:100A8000DC8000F098F9801B41F289318842F0D374
:100A90000320EDE0DFF8B002006810F00C0F00F06A
:100AA000CC8000F088F9801B41F289318842F1D373
:100AB0000320DDE02078800709D5DFF88C0200688C
:100AC00030F0F000A1680843DFF87C12086020785D
:100AD000C00740F1A380606801281FD14FF4804017
:100AE000B0FA80F050F02000C0B24009C0B2012836
:100AF00002D18D48006806E04FF48040B0FA80F0E3
:100B0000DFF8280200684FF48041B1FA81F111F05A
:100B10001F01C840C00741D40120A9E06068022835
:100B20001CD14020B0FA80F050F02000C0B2400943
:100B3000C0B2012802D17C48006805E04020B0FA2C
:100B400080F0DFF8E80100684021B1FA81F111F08E
:100B50001F01C840C00721D4012089E05FF0804018
:100B6000B0FA80F050F02000C0B24009C0B20128B5
:100B700002D16D48006806E05FF08040B0FA80F076
:100B8000DFF8A80100685FF08041B1FA81F111F04F
:100B90001F01C840C00701D4012069E0DFF8A801A7
:100BA00000688008800061680843DFF89C110860D5
:100BB00000F001F90600606801280FD1DFF8880114
:100BC000006810F00C00042828D000F0F4F8801B16
:100BD00041F289318842F1D3032049E0606802285C
:100BE0000ED15948006810F00C00082816D000F00B
:100BF000E2F8801B41F289318842F2D3032037E0CA
:100C00005148006810F00C0F08D000F0D4F8801B99
:100C100041F289318842F3D3032029E04948006832
:100C2000C008C0002843474908604648006810F0E3
:100C30000700A84201D001201AE02078400707D51C
:100C40004148006830F4E060E16808433E490860CC
:100C50002078000708D53C48006830F460502169CE
:100C600050EAC10038490860002000F08CF80020EC
:100C700070BDF0B585B001A83449102200F0B0F87D
:100C800033480088ADF80000002100220023002432
:100C90000020244D2D68290011F00C05042D02D0F0
:100CA000082D03D026E02B4D280025E001AD11F4DE
:100CB00070164FF47057B7FA87F7FE40755D2C0039
:100CC000CD0311D5174D2D686E4615F400354FF440
:100CD0008047B7FA87F7FD40AD5D2A001D4DB5FB93
:100CE000F2F565432B0003E01B4D05FB04F52B00DB
:100CF000180001E0174D280005B0F0BD80B5FFF7E2
:100D0000B8FF084909685FF07062B2FA82F2134BCB
:100D100011F0F001D140C95CC84011490860104889
:100D2000006802BD0410024000100240241002407E
:100D300000004242800442421C1002400070004009
:100D400020100240002002400410024098290008B0
:100D5000360E000800127A0000093D00A82900089C
:100D60000C00002080B51C48006850F010001A49A3
:100D70000860032000F0C8F8002000F004F800F03C
:100D80000FF9002002BD10B50400FFF7B7FF4FF4C4
:100D90007A71B0FBF1F000F0D7F8002221005FF08B
:100DA000FF3000F0B7F8002010BD0C480068401C70
:100DB0000A490860704709480068704711B581B05A
:100DC0000024FFF7F8FF0400FFF7F5FF001B01996F
:100DD0008842F9D313BD00000020024074000020B7
:100DE000103A07D330B4B1E83810103AA0E8381000
:100DF000F9D230BC530724BFB1E80810A0E80810AE
:100E000044BF51F8043B40F8043BD20724BF31F8FB
:100E1000022B20F8022B44BF0B7803707047083A6E
:100E200007D3B1E80810083A40F8043B40F804CB77
:100E3000F7D25307E4E7010210F007024D4B1B689D
:100E400019004FF6FF0319404B4B53EA0223194395
:100E5000484B1960704747480068C0F3022070474C
:100E6000012110F01F029140444A40B2430942F868
:100E70002310704710B440B2002808D50A01404B37
:100E800040B210F00F04E31803F8042C03E00A0149
:100E90003C4B40B2C25410BC704770B4030013F016
:100EA0000704D4F10706052E01D3042001E0D4F194
:100EB0000700261D072E01D2002500E0E51E0126B1
:100EC00016FA00F0401E0840A8400121A940491E22
:100ED0001140084370BC704710B50400601EB0F1AB
:100EE000807F01D301200EE0601E274908600F219A
:100EF0005FF0FF30FFF7BEFF0020244908600720A5
:100F000023490860002010BD10B504002000FFF741
:100F100093FF10BDF8B504000D0016000027FFF781
:100F20009AFF0700320029003800FFF7B6FF0100E2
:100F3000200040B2FFF79EFFF1BD10B50400200075
:100F400040B2FFF78DFF10BD10B504002000FFF781
:100F5000C3FF10BD042806D10D49096851F00401F2
:100F60000B4A116005E00A49096831F00401084A9A
:100F7000116070470CED00E00000FA0500E100E0B0
:100F800018ED00E000E400E014E000E018E000E00C
:100F900010E000E080B500F001F801BD70470000EE
:100FA00080B51748006850F00100154908601448E2
:100FB000006810F00100009000980520FFF7A4FFE2
:100FC000002200217FF00B00FFF7A4FF0022002188
:100FD0007FF00A00FFF79EFF002200217FF009004A
:100FE000FFF798FF002200217FF00300FFF792FF38
:100FF000002200215FF0FF30FFF78CFF01BD00BF32
:101000001810024000B585B0DFF8C005006850F048
:101010000400DFF8B8150860DFF8B005006810F0CC
:10102000040000900098DFF8A405006850F0080064
:10103000DFF898150860DFF89405006810F00800E4
:1010400000900098DFF88405006850F00800DFF891
:101050007C150860DFF87405006810F00800009047
:1010600000984FF4807001901220029003200490A9
:1010700001A9DFF85C0500F0D1FA01224FF400511C
:10108000DFF8500500F041FC4FF4005001901120B2
:1010900002900320049001A9DFF8380500F0BEFAA1
:1010A00000224FF48041DFF82C0500F02EFC4FF4B5
:1010B00080400190112002900320049001A9DFF8E4
:1010C000140500F0ABFA05B000BD00B58DB0DFF837
:1010D000FC04006850F40060DFF8F0140860DFF8EA
:1010E000EC04006810F4006000900098FFF78AFF9D
:1010F000DFF8E404DFF8E41408600320DFF8DC1410
:1011000048600020DFF8D41488604FF6FF70DFF8E5
:10111000CC14C8600020DFF8C4140861DFF8BC04F8
:1011200000F022FC4FF48050089008A9DFF8AC04CE
:1011300000F07CFC302001904FF6FF700290002000
:101140000390002201A9DFF8940400F039FC00228A
:101150000021DFF8840400F06DFE002200211B2036
:10116000FFF7D8FE1B20FFF7E8FE7FF00200DFF854
:101170006C1409680861DFF864040068C06850F006
:101180000200DFF858140968C860DFF850040068EE
:10119000406C50F40040DFF8441409684864DFF8FC
:1011A0003C0400F0FEFB0DB000BD3FB583B00398DA
:1011B00000280ED50120DFF82814487000224FF4D3
:1011C0000051DFF8100400F0A0FB039840420390A8
:1011D0000AE00020DFF80814487001224FF40051A3
:1011E000DFF8F00300F091FB039801280ED15FF0C7
:1011F000FF30DFF8EC1348610220DFF8E4130870D9
:101200004FF47A70DFF8D8134860ABE003980028F9
:1012100000F0A880DFF8CC030068800800F01AFE18
:10122000DFF8C41300F026FE0400069800F012FE5A
:101230000100200000F08AFE00F006FFDFF8A01396
:101240000861DFF8A0030068800800F01FFFDFF8E6
:101250009C23DFF89C3300F027FF0022DFF8943353
:1012600000F0F4FF01F01EF901F064F904000D0034
:10127000049800F0EFFD0100DFF87C0300F066FE4B
:1012800001F058F901F07EF922002B0000F00CFF6C
:101290000022DFF8603300F0D9FF01F0EBF9DFF84E
:1012A0004013486006980699484300F0D3FD0400B7
:1012B000049800F0CFFDDFF8441300F0DBFDDFF809
:1012C000401300F043FE0100200000F03FFE01F05B
:1012D000F7F901900198002801D1012001900398AD
:1012E0000599049A484305998918B0FBF1F00090DC
:1012F0000098002801D101200090019800998842AF
:1013000005D300980399401AB549C86008E00198D0
:10131000049948430599B0FBF1F04042B049C860D8
:10132000AF48C068002803D15FF0FF30AC49C86007
:101330000398AB49C9680818A9498860A84800699A
:10134000A7494968884207DBA5480069A449486065
:101350000320A349087002E00120A1490870002081
:101360009F4948610120A74908709C480068406A6D
:10137000ADF80800BDF8080080B29949496808181E
:1013800096490968486301220021934800F052FD04
:1013900001224FF480418F4800F0B7FA07B030BD0A
:1013A00010B582B00020ADF8000000248B48006822
:1013B000C068800740F108817FF002008749096812
:1013C000086186480068406AADF80000BDF800007A
:1013D00080B28349496808188049096848638A4887
:1013E0000078401C8849087087480078022840F03F
:1013F000EB8000208449087079480078002806D0E6
:10140000022800F09E801CD3032872D0D9E000206F
:101410007E49086000207E490860002200216E4855
:1014200000F008FD7FF002006C49096808610022A5
:101430004FF48041674800F068FA00207149087055
:10144000BFE072480068401C7049086064484078FA
:10145000002805D16F480068401C6E49086004E010
:101460006C480068401E6B4908605D484069401C3C
:101470005B4948615A48406859494968644A12685A
:1014800012EB4101564A52699200521C91FBF2F153
:10149000401A0400524840685D490968504A526940
:1014A00011EB40009100491C90FBF1F201FB12008E
:1014B000574908605548006849498968884207D3F8
:1014C0004748C068464948610220454908700FE016
:1014D00043480069A4B2A0420ADB4F480480404858
:1014E0000069040000204A49086003203C49087054
:1014F00067E046480068401C444908603848407826
:10150000002805D143480068401C4249086004E0B7
:1015100040480068401E3F490860314800690400A7
:101520003A4800682E498968884209D32C48C06827
:101530002B49486138480088040002202849087077
:101540003FE032480068401C304908602448407839
:10155000002805D12F480068401C2E49086004E08F
:101560002C480068401E2B4908601D484069401CFB
:101570001B4948611A48406819494968244A126859
:1015800012EB4101164A52699200521C91FBF2F192
:10159000401A0400124840681D490968104A5269FF
:1015A00011EB40009100491C90FBF1F201FB12008D
:1015B000174908600A484069002802D400200849F9
:1015C0000870A4B20648446013BD00001810024021
:1015D00000080140000C0140002C014014000020D4
:1015E000500000200C00002072D9203C6F1283C0F4
:1015F000CAA1E53F0000244070594443CF0F493E43
:10160000000020417A0000207B0000206C000020B8
:101610007000002068000020780000202DE9F841CB
:1016200000230024002500265FF0000E5FF0000C70
:101630006246102A80F05B815FF0010C1CFA02FC0C
:101640006346D1F800C013EA0C0C64469C4240F09B
:101650004C81D1F804C0BCF1000F3DD0BCF1010FAA
:1016600024D0BCF1020F2BD0BCF1030F4CD0BCF145
:10167000110F1FD0BCF1120F28D0DFF8A482C4458F
:101680002AD0DFF8A082C44526D0DFF89C82C4456A
:1016900022D0DFF89882C4451ED0DFF89482C4457A
:1016A0001AD0DFF89082C44516D031E0D1F80CC0D2
:1016B00066462DE0D1F80CC01CF1040C664627E00C
:1016C000D1F80CC01CF1080C664621E0D1F80CC022
:1016D0001CF10C0C66461BE0D1F808C0BCF1000FF1
:1016E00003D15FF0040C66460DE0D1F808C0BCF1F0
:1016F000010F04D15FF0080C6646036103E05FF060
:10170000080C6646436103E05FF0000C6646FFE7A5
:10171000FF2C01D8070000E0071DFF2C02D85FEA6C
:10172000820E03E0B2F1080C5FEA8C0ED7F800C01D
:101730005FF00F0818FA0EF83CEA080C16FA0EF8DB
:1017400058EA0C0CC7F800C0D1F804C05FEACC0C12
:1017500040F1CB80DFF8E0C1DCF800C05CF0010CA8
:10176000DFF8D481C8F800C0DFF8CCC1DCF800C0D5
:101770001CF00108CDF80080DDF800C0DFF8BCC126
:101780005FEA92085CF828C065465FF00F0C12F023
:1017900003085FFA88F85FEA88081CFA08FC35EA53
:1017A0000C05DFF89CC1604502D15FF0000C24E01D
:1017B000DFF890C1604502D15FF0010C1DE0DFF859
:1017C00088C1604502D15FF0020C16E0DFF87CC1F1
:1017D000604502D15FF0030C0FE0DFF874C1604593
:1017E00002D15FF0040C08E0DFF868C1604502D167
:1017F0005FF0050C01E05FF0060C12F003085FFAE1
:1018000088F85FEA88081CFA08FC5CEA0505DFF83E
:101810002CC15FEA92084CF82850D1F804C05FEA66
:10182000CC3C0AD5DFF830C1DCF800C054EA0C0C1F
:10183000DFF82481C8F800C009E0DFF81CC1DCF83B
:1018400000C03CEA040CDFF81081C8F800C0D1F8F1
:1018500004C05FEA8C3C0AD5DFF800C1DCF800C0A8
:1018600054EA0C0CDFF8F480C8F800C009E0DFF897
:10187000ECC0DCF800C03CEA040CDFF8E080C8F8FB
:1018800000C0D1F804C05FEACC2C0AD5DFF8D0C084
:10189000DCF800C054EA0C0CDFF8C480C8F800C0C3
:1018A00009E0DFF8BCC0DCF800C03CEA040CDFF85B
:1018B000B080C8F800C0D1F804C05FEA8C2C0AD50B
:1018C000DFF8A0C0DCF800C054EA0C0CDFF894800C
:1018D000C8F800C009E0DFF88CC0DCF800C03CEAC2
:1018E000040CDFF88080C8F800C0521CA1E6BDE8F7
:1018F000F1810200936889B20B4202D001231800E3
:1019000001E00023180040B2704752B2002A02D012
:1019100089B2016102E089B20B04036170470000E3
:101920000000111000001210000021100000221011
:101930000000311000003210181002400800014071
:1019400000080140000C014000100140001401405B
:1019500000180140001C0140000401400404014043
:10196000080401400C04014010B50400002C01D112
:10197000012014E094F93900002805D1002084F8F2
:101980003800200000F00CF8022084F83900211DF6
:10199000206800F0DAF8012084F83900002010BD3A
:1019A00070470100022081F839000868006850F093
:1019B00001000A681060012081F83900002070479A
:1019C00070B504000D00160094F93800012801D10B
:1019D00002202AE0012084F83800022084F839002F
:1019E0003000002806D0042809D008280CD00C2884
:1019F0000FD013E02900206800F0EBF80EE029007A
:101A0000206800F01FF909E02900206800F058F96B
:101A100004E02900206800F090F9FFE7012084F835
:101A20003900002084F83800002070BD70B5040033
:101A30000D00002694F93800012801D1022083E02E
:101A4000012084F83800022084F83900206880687A
:101A5000060036F0770636F47F46206886602868F0
:101A6000002856D0102859D020285CD030285FD0CC
:101A7000402844D050282ED0602836D070280DD071
:101A8000B0F5805F03D0B0F5005F17D055E0206857
:101A90008068C008C000216888604EE0EB686A6812
:101AA000A968206800F0B8F920688068060036F060
:101AB000770656F07706206886603EE0EB686A6835
:101AC000A968206800F0A8F92068806850F4804078
:101AD0002168886031E0EA686968206800F064F98C
:101AE0005021206800F08DF927E0EA6869682068D5
:101AF00000F070F96021206800F083F91DE0EA68C9
:101B00006968206800F050F94021206800F079F9F8
:101B100013E00021206800F074F90EE01021206825
:101B200000F06FF909E02021206800F06AF904E074
:101B30003021206800F065F9FFE7012084F83900C2
:101B4000002084F83800002070BD002203681A00CD
:101B5000DFF84032984212D0DFF83C3298420ED083
:101B6000B0F1804F0BD0DFF83432984207D0DFF865
:101B70003032984203D0DFF82C32984203D132F051
:101B800070024B681A43834B98420ED0824B9842A6
:101B90000BD0B0F1804F08D0804B984205D0804BDD
:101BA000984202D07F4B984203D132F44072CB6806
:101BB0001A4302608B68C3620B688362754B98425C
:101BC00002D0754B984201D10B6903630123436135
:101BD000704730B4002300240022056A6D086D00B0
:101BE0000562056A2C0045682A0085692B0033F0E0
:101BF00070039B089B000D682B4334F002048D6832
:101C00002C43644DA84202D0634DA84205D134F064
:101C10000804CD682C4334F004045E4DA84202D081
:101C20005D4DA84207D132F4807232F400724D69E2
:101C30002A438D692A43426083614D68456304628B
:101C400030BC704730B4002300240022056A35F010
:101C500010050562056A2C0045682A0085692B007D
:101C600033F4E04333F440730D6853EA052334F052
:101C700020048D6854EA0514464DA84202D0464D12
:101C8000A84206D134F08004CD6854EA051434F03B
:101C90004004404DA84202D03F4DA84209D132F441
:101CA000806232F400624D6952EA85028D6952EA1F
:101CB0008502426083614D688563046230BC704771
:101CC00030B4002300240022056A35F480750562D3
:101CD000056A2C0045682A00C5692B0033F07003A3
:101CE0009B089B000D682B4334F400748D6854EA04
:101CF0000524284DA84202D0274DA84206D134F42D
:101D00000064CD6854EA052434F48064214DA8426F
:101D100002D0214DA84209D132F4805232F400524F
:101D20004D6952EA05128D6952EA05124260C3619B
:101D30004D68C563046230BC704730B40022002394
:101D40000024056A35F480550562056A2B00456854
:101D50002C00C5692A0032F4E04232F440720D686A
:101D600052EA052233F400538D6853EA0533094DD6
:101D7000A84202D0084DA84204D134F480444D69F1
:101D800054EA85144460C2614D680564036230BC46
:101D900070470000002C0140003401400004004066
:101DA00000080040000C004030B400230024056A05
:101DB0002C00056A6D086D00056285692B0033F003
:101DC000F00353EA021334F00A040C438361046203
:101DD00030BC704730B400230024056A35F010058C
:101DE000056285692B00056A2C0033F4704353EAC1
:101DF000023334F0A00454EA01148361046230BC5D
:101E00007047002283681A0032F0700289B251F0E4
:101E100007031A438260704730B4002485682C00A1
:101E200034F47F4452EA010555EA03252C438460CB
:101E300030BC704730B4002301248C402300046A76
:101E40009C430462046A12FA01F52C43046230BC1C
:101E500070470000002800BF0AD0B0FA80F1884027
:101E6000D1F19D01C905020672F1004241EB10203B
:101E700070470000FF2212EAD05C1DBF12EAD15366
:101E8000944593422BE09C44D30780EA01021A4018
:101E900043EA002043EA0121A1FB0030410038BFA2
:101EA00040007CF17F010BDBFE294ADA5B0842EA45
:101EB000C15153EA006373F1004C51EB102070479D
:101EC000D1F1080CDCF120012FDB5B0810FA01F1E5
:101ED0000B4373F1004120FA0CF0504170479445D8
:101EE0001CBF02EAD153934280EA010202F0004291
:101EF0001DD0400019D0490017D05BB9634514D0FC
:101F00000902B1FA81F39940BCEB030CC00140F027
:101F10000040C1E70002B0FA80FC10FA0CF0B3EB0D
:101F20000C0CC90141F00041B6E7100070474000B9
:101F30000AD0490008D010F1807F94BF11F1807F52
:101F400002E042F0FF407047D043704710B5FF23D6
:101F500013EAD0541DBF13EAD1529C429A4239E091
:101F6000A41ADA0780EA0103134042EA012142EA97
:101F70000020421A3CBF641E01EB4202090AB2FB78
:101F8000F1FE01FB1E221202B2FBF1F001FB102256
:101F90006EF30F201202B2FBF1FE4EEA00207F34F6
:101FA00006DDFE2C24DA53EA500050EBC45010BD7D
:101FB000D4F1020401FB1E2240F08071192C1DDCBB
:101FC00021FA04F0C4F12004A140114371F1004250
:101FD000584110BD9C421ABF03EAD1529A420FE009
:101FE00080EA010E0EF00043400004D0490016D1F3
:101FF00043F0FF4010BD490008BFD343180010BD97
:102000009C4205D1D21AF7D001F00041484010BDE2
:102010004A0212BF0846484000F0004010BD4AB9CD
:102020000902B1FA81F2914044B1A418C00140F014
:1020300000409EE7C90141F0004152420002B0FA5F
:1020400080F4A040141B94E74100090E7F3915D499
:10205000D1F11F0114D4400007D2C00140F000406C
:10206000C84048BF6FF000407047C00140F00040DA
:10207000C8404CBF4FF000404042704700207047BE
:1020800000424FF0004058BFC0437047010000BFFE
:1020900009D0B0FA80F18840C91CC1F584610905F6
:1020A00001EBD02140057047B0B581EA030C0CF07C
:1020B000004C40F2FF7515EA11541DBF15EA135785
:1020C000AC42AF4239E0E41923EA455343F48013AC
:1020D000C90241F0004141EA505EC7021100A7FB6E
:1020E000020200284FF00000EEFB01204FF000013B
:1020F000E3FB072118BF42F00102401800214941CB
:10210000E3FB0E01A4F580640F0302D252004041AC
:10211000494154F101046CDD470872F1004250F16D
:10212000000051EB0451A1F580115CBF41EA0C01A4
:10213000B0BD4CEA05510020B0BD05EA1357AC42D2
:1021400014BFAF4241E050EA410E1CBF52EA430EB9
:1021500002E061460020B0BD24423C441BD15FEA4E
:10216000070EF6D0090302BF01460020AEF1140E9F
:10217000B1FA81F7AEEB070401FA07FE0C37C7F19D
:10218000200100FA07F7C8404EEA000E23EA455343
:1021900043F48013A2E733F00043B3FA83F704BF9C
:1021A000B2FA82FE77440B3FE41BB7F1200E2FBF3B
:1021B00002FA0EF3BB40C7F1200E22FA0EFE38BF22
:1021C00043EA0E03BA40641C82E750EA410E14BF92
:1021D00052EA430E6FF000014FF4001717EB430F64
:1021E0008ABF194617EB410FB5E74CEA05510020AD
:1021F000B0BDD4F10104B4F120070FDAC4F1200717
:10220000520828BF42F0010210FA07F501FA07F759
:10221000E1BF2A43E0403843E1400FE0352C98DC31
:10222000C7F1200452EA400220FA07F218BF42F038
:10223000010231FA07F0A1400A43002172F1004285
:1022400050F1000051EB0C01B0BD00002DE9F04150
:1022500040F2FF7581EA030C0CF0004C15EA1154B2
:102260001DBF15EA1357AC42AF42E9E0BC41C1F3D0
:102270001301C3F31303801A994143F4801304D26A
:10228000641E4000494180185941C90241EA505139
:10229000B1FBF3F603FB1611A2FB0675D7EBC020CA
:1022A000A94102D2761E80185941C90241EA505113
:1022B000B1FBF3FE03FB1E11A2FB0E75D7EBC02092
:1022C000A94103D2AEF1010E80185941890241EAB9
:1022D0009051760546EA8E2EB1FBF3F603FB1611FC
:1022E000A2FB0675D7EB8020A94102D2761E80188A
:1022F0005941C90241EA50514EEA060EB1FBF3F6CC
:1023000003FB1611A2FB0675D7EBC020A94102D230
:10231000761E80185941C90241EA5051B1FBF3F7CA
:1023200003FB1711A2FB0735D3EBC020A94167F1CE
:1023300000070CBF004247F0010766F3D5274FEABC
:102340001E31B80814F5806414DDBD0775F1004234
:1023500050EB0E5051EB045111F5801F5CBF41EA68
:102360000C01BDE8F0814CF07F6141F0E0410020BC
:10237000BDE8F081BD076D0840EA0E5041F48011C0
:10238000D4F10104B4F120060ADAC4F120060200F7
:10239000E04001FA06F3E1401843B24015430EE075
:1023A000342C14DCC6F1200445EA40056D0820FAFF
:1023B00006F2154321FA06F0A1400D43002175F104
:1023C000004250F1000051EB0C01BDE8F08100200B
:1023D0005FEA0C01BDE8F081CFB992185B41B3FA16
:1023E00083F704BFB2FA82F6BF190B3FB7F120069C
:1023F0002FBF02FA06F3BB40C7F1200622FA06F609
:1024000038BF3343BA401CB1E419641E2FE77F4242
:1024100031F00041B1FA81F404BFB0FA80F6A4199A
:102420000B3CB4F120062FBF00FA06F1A140C4F125
:10243000200620FA06F638BF3143A0403C1B16E7C1
:10244000AC421ABF05EA1357AF4214E050EA410606
:102450001CBF52EA4306BFE750EA410730466146D7
:102460001CBF41EA0551BDE8F08152EA430C08BFA8
:10247000C143BDE8F08100204FF4001616EB410F78
:1024800098BF16EB430F08BF16EB410F24BFC143A3
:1024900005E016EB430F0CBF61464CEA0551BDE861
:1024A000F08100004FEAF17CBCF1E04C2CBFBCF5A0
:1024B000001F11E05FEA4C0C34BFBCF17F5F2EE0DF
:1024C0005FEA9C0C4FEA0C1C4FEA3C0CC10071F116
:1024D00000414CEB50707047C90241EA5051C002B4
:1024E00018BF41F0010141F000414FEA6C50C0F1CA
:1024F0000900212810D240EACC7CCCF1200C11FA42
:102500000CF070F10040CCF1200C21FA0CF00CF032
:10251000004C40EB0C0070474FEACC70704749000C
:1025200011F5001F04D84FEACC10FF30C0057047EA
:10253000C81770475FF0FF0C1CEAD05114BF61450B
:1025400006E0C110400721F0E04101F16051704701
:1025500079B900F0004100020AD0B0FA80FC00FA1C
:102560000CF001F16051A1EB0C5101EBD0214005C1
:10257000704741020CBF40F4E0016FF00001002001
:102580007047000040F2FF7C0B0D4DD0634566D2D2
:1025900030B421EA035141F4801103F2FD3C5FEABB
:1025A0005C0C01D300184941890041EA9071800018
:1025B0004FF440140023E202D50AB1F5100107D40C
:1025C0006D081DD2091B641900184941491BF7D534
:1025D0006D080AD20919641B00184941491BEFD53F
:1025E0006D08F7D301E0520817D0C01861419B1A5B
:1025F000AC4100184941801AA941F4D452080AD0CC
:10260000C01AA1419B186C4100184941801AA94188
:10261000E9D45208F4D15B1C6C4161084FEA3300E5
:1026200001EB0C5130BC704750EA0103FBD030B4D1
:10263000B1FA81F311B9B0FA80F41B190B3BB3F175
:1026400020042FBF00FA04F19940C3F1200420FABE
:1026500004F438BF21439840D3F101039DE763455B
:10266000E1D011F5801FDED850EA4101DBD0D9431B
:1026700000F038B8F446400D40EAC120490006D2C7
:1026800000F00EF8004248BF6FF00040604700F0D5
:1026900007F84FF0004188428CBF0846404260472F
:1026A00040F00040490DA1F58061491C05D4D1F1ED
:1026B0001F0154BFC840C01770474FF0000070475B
:1026C00040000DD2010E7F390AD4D1F11F0104D48C
:1026D000C00140F00040C84070477FF000007047E4
:1026E000002070471FB500F003F8212101601FBDD5
:1026F000014800F003B800001000002070470000FF
:1027000000B58FB0012005905FF480300690002066
:10271000079002200C905FF480300D905FF4E01081
:102720000E9005A8FDF704FD0F20009002200190F7
:10273000002002904FF4806003900020049002215A
:102740006846FEF7DDF8FEF7D9FA4FF47A71B0FB70
:10275000F1F0FEF7F9FB0420FEF7FCFB002200215C
:102760005FF0FF30FEF7D6FB0FB000BD80B5FEF77F
:10277000F9FAFFF7C5FF00F019F8FEF7A6FC00F024
:102780002FF80128FBD10548036805480268054871
:1027900001680548FEF709FDF1E700000000002090
:1027A0000800002004000020001EFBFF00B585B0DB
:1027B0001848006850F00400164908601548006881
:1027C00010F0040000900098012001900020029079
:1027D0000220039001A91048FEF720FF05B000BDBC
:1027E00080B501210C48FFF784F8012810D114208E
:1027F000FEF7E4FA01210848FFF77BF8012807D12A
:1028000001210548FFF775F80128F9D0012000E003
:10281000002002BD18100240000801401348006863
:1028200050F0010011490860114800681149084042
:102830000F4908600D4800680F4908400B490860BF
:102840000A48006830F48020084908600848006899
:1028500030F4FE00064908605FF41F000749086075
:102860005FF00060064908607047000000100240F9
:10287000041002400000FFF8FFFFF6FE08100240BF
:1028800008ED00E019E050F8041BCB0744BFA9F1A4
:1028900001035918121F0023042A41F8043BF9D2FE
:1028A0005FEA827C0B4604D54FF0000CA1F800C013
:1028B0009B1CD10744BF0021197050F8042B002A3B
:1028C000E1D1704710B450F8041B79B10268436835
:1028D00012180830DC0744BFA9F10104E31852F8CC
:1028E000044B43F8044B091FF9D1ECE710BC7047C7
:1028F00010B5074979441831064C7C44163404E07D
:102900000A68081D511888470146A142F8D110BD38
:1029100008000000280000006DFFFFFF68000000B5
:1029200014000020000000009DFFFFFF14000000C5
:1029300098010000000000200000000000F00BF8EB
:10294000002801D0FFF7D4FF0020C046C046FFF7A3
:102950000DFF00F002F80120704700F001B8000000
:102960000746384600F002F8FBE7000080B5C04695
:10297000C046024A11001820ABBEFBE72600020049
:102980007047FEE7FEE7FEE7FEE7FEE780B5FEF7ED
:102990000CFAFEF7FFFA01BD020304050607080959
:1029A0000A0B0C0D0E0F10100000000001020304B2
:1029B000010203040607080901488047014800474F
:1029C0001D280008C9290008C046C046C046C046A8
:1029D000FFF7B4FFFFF7FEBFFFF7FEBFFFF7FEBF35
:1029E000FFF7FEBFFFF7FEBFFFF7FEBFFFF7FEBF1B
:1029F000FFF7FEBFFFF7FEBFFFF7FEBFFFF7FEBF0B
:102A0000FFF7FEBFFFF7FEBFFFF7FEBFFFF7FEBFFA
:102A1000FFF7FEBFFFF7FEBFFFF7FEBFFFF7FEBFEA
:102A2000FFF7FEBFFFF7FEBFFFF7FEBFFFF7FEBFDA
:102A3000FFF7FEBFFFF7FEBFFFF7FEBFFFF7FEBFCA
:102A4000FFF7FEBFFFF7FEBFFFF7FEBFFFF7FEBFBA
:102A5000FFF7FEBFFFF7FEBFFFF7FEBFFFF7FEBFAA
:102A6000FFF7FEBFFFF7FEBFFFF7FEBFFFF7FEBF9A
:102A7000FFF7FEBFFFF7FEBFFFF7FEBFFFF7FEBF8A
:102A8000FFF7FEBFFFF7FEBFFFF7FEBFFFF7FEBF7A
:102A9000FFF7FEBFFFF7FEBFFFF7FEBFFFF7FEBF6A
:102AA000FFF7FEBFFFF7FEBFFFF7FEBFFFF7FEBF5A
:102AB000FFF7FEBFFFF7FEBFFFF7FEBFFFF7FEBF4A
:102AC000FFF7FEBFFFF7FEBFF4010000F4010000B6
:0C2AD000F401000000A24A040000000015
:04000005080029C9FD
:00000001FF
