:020000040800F2
:100000004810002045010008331400082F14000890
:10001000311400088D010008FB18000800000000E2
:100020000000000000000000000000005701000870
:100030008F010008000000005B0100089115000816
:100040005F0100085F0100085F0100085F01000810
:100050005F0100085F0100085F0100085F01000800
:100060005F0100085F0100085F0100085F010008F0
:100070005F0100085F0100085F0100085F010008E0
:100080005F0100085F0100085F0100085F010008D0
:100090005F0100085F0100085F0100085F010008C0
:1000A0005F0100085F0100085F01000845160008B5
:1000B0005F0100085F0100085F0100085F010008A0
:1000C0005F0100085F0100085F0100085F01000890
:1000D0005F0100085F0100085F0100085F01000880
:1000E0005F0100085F0100085F0100085F01000870
:1000F0005F0100085F0100085F0100085F01000860
:100100005F0100085F0100085F0100085F0100084F
:100110005F0100085F0100085F0100085F0100083F
:100120005F0100085F0100085F0100085F0100082F
:10013000DFF80CD000F018F8004800471D1900083F
:10014000481000200648804706480047FEE7FEE7C3
:10015000FEE7FEE7FEE7FEE7FEE7FEE7FEE7FEE777
:10016000FD15000831010008064C074D06E0E06867
:1001700040F0010394E8070098471034AC42F6D3EE
:10018000FFF7DAFF4C1900086C190008FEE7FEE7DC
:1001900031B500F019F9044600F016F90099001B7A
:1001A0008842F9D338BD00002DE9F84F0023002420
:1001B000DFF8DC914FF00F0809F1040A0AF1040B93
:1001C0000BF1040E0127A7400A683A40BA4275D1E4
:1001D000DFF8C0C14D68A5EB0C0665452BD00DDCE2
:1001E000032D34D005DC35B3012D19D0022D2FD1CC
:1001F0001BE0112D16D0122D2AD119E0B6F5881F5B
:1002000019D006DCB6F5803F15D0B6F5801F1FD19A
:1002100011E0B6F5001F0ED0B6F5041F18D10AE0A4
:10022000CB6815E0CB681B1D12E0CB6808330FE0EC
:10023000CB680C330CE08B6823B1012B04D008236E
:10024000476105E0042303E00823076100E0002381
:10025000FF2A01D8054601E000F1040502D84FEA63
:10026000840603E0A4F108064FEA86062F6808FA20
:1002700006FC27EA0C0703FA06F647EA06072F6092
:100280004D68ED007ED5444DAE6946F00106AE6185
:10029000AD6905F001050095404D24F0030677197E
:1002A000BE68A5072D0F08FA05FC26EA0C06DFF844
:1002B000F0C0604503D14FF0000C25E062E0DFF8AC
:1002C000E4C0604502D14FF0010C1DE0DFF8D8C05A
:1002D000604502D14FF0020C16E0DFF8D0C0604557
:1002E00002D14FF0030C0FE0DFF8C4C0604502D12B
:1002F0004FF0040C08E0DFF8BCC0604502D14FF0BD
:10030000050C01E04FF0060C0CFA05FC4CEA060C5B
:10031000C7F808C04D68ED0305D5D9F8005015435E
:10032000C9F8005004E0D9F800509543C9F80050CE
:100330004D68AD0305D5DAF800501543CAF80050F2
:1003400004E0DAF800509543CAF800504D68ED0219
:1003500005D5DBF800501543CBF8005004E0DBF87E
:1003600000509543CBF800504D68AD0205D5DEF83E
:1003700000501543CEF8005004E0DEF800509543DD
:10038000CEF80050641C102CFFF41CAFBDE8F88FB1
:100390000004014000001110001002400000014064
:1003A00000080140000C0140001001400014014011
:1003B00000180140001C0140002A01D00161704773
:1003C000090401617047000001480068704700009F
:1003D0000400002002480168491C016070470000C9
:1003E0000400002010B50748016841F010010160C9
:1003F000032000F075F8002000F006F800F016F871
:10040000002010BD0020024010B5044600F0D6F9CF
:100410004FF47A72B0FBF2F000F095FD0022214615
:10042000501E00F03DF8002010BD000008B5154832
:10043000816941F001018161806900F00100009053
:10044000052000F04DF8002211466FF00B0000F07F
:1004500027F8002211466FF00A0000F021F8002270
:1004600011466FF0090000F01BF800221146101F22
:1004700000F016F80022BDE808401146501E00F0BA
:100480000FB800000010024000F01F02012191404F
:100490004009800000F1E020C0F800117047000022
:1004A000F0B40D460D4B1B68C3F30223C3F10704E0
:1004B000042C00D90424191D072901D2002300E0CF
:1004C000DB1E012606FA04F1491E294099409E4090
:1004D000761E16403143F0BC00F0ACBF0CED00E0DE
:1004E00000F00701054A10684FF6FF03184040EA84
:1004F0000120034908431060704700000CED00E044
:100500000000FA052DE9F04704460F46DFF8A492F3
:10051000D9F80000A84D00F0070101204304460669
:100520004FF0020C41F28838B9426FD2D9F800106E
:1005300021F007013943C9F80010D9F8001001F083
:100540000701B94201D0BDE8F0872178890705D5B8
:100550006968A26821F0F001114369602178C90738
:1005600061D0616801290BD002291FD09CFAACF23E
:10057000B2FA82F242F0200252092DD02A682CE011
:1005800093FAA3F2B2FA82F242F02002520901D0A9
:100590002A6800E06A6A93FAA3F3B3FA83F303F0DC
:1005A0001F039840024223D10120CCE796FAA6F21D
:1005B000B2FA82F242F02002520901D02A6800E029
:1005C0006A6A96FAA6F3B3FA83F303F01F0398401E
:1005D00002420DD10120B6E76A6A9CFAACF3B3FA85
:1005E00083F303F01F039840024201D10120AAE7E0
:1005F000686820F0030008436860FFF7E5FE0646E0
:10060000606801280AD0022815D021E025E0FFF714
:10061000DBFE801B404501D9032094E76868C0F3E6
:1006200081000128F3D1ADE0FFF7CEFE801B4045ED
:1006300001D9032087E76868C0F381000228F3D15D
:10064000A0E0FFF7C1FE801B404501D903207AE7F7
:10065000686810F00C0FF4D194E02178890705D573
:100660006968A26821F0F001114369602178C90727
:1006700079D0616801290BD002291FD09CFAACF215
:10068000B2FA82F242F0200252092DD02A682CE000
:1006900093FAA3F2B2FA82F242F02002520901D098
:1006A0002A6800E06A6A93FAA3F3B3FA83F303F0CB
:1006B0001F039840024223D1012044E796FAA6F294
:1006C000B2FA82F242F02002520901D02A6800E018
:1006D0006A6A96FAA6F3B3FA83F303F01F0398400D
:1006E00002420DD101202EE76A6A9CFAACF3B3FAFC
:1006F00083F303F01F039840024201D1012022E757
:10070000686820F0030008436860FFF75DFE064656
:100710006068012809D0022814D020E0FFF754FEB9
:10072000801B404501D903200DE76868C0F38100B4
:100730000128F3D117E0FFF747FE801B404501D9A0
:10074000032000E76868C0F381000228F3D10AE0C3
:10075000FFF73AFE801B404501D90320F3E66868A5
:1007600010F00C0FF4D1D9F8000020F00700384346
:10077000C9F80000D9F8000000F00700B84201D025
:100780000120E0E62078400705D56868E16820F49C
:10079000E060084368602078000706D56868216932
:1007A00020F4605040EAC10068600020FFF72CFE92
:1007B0000020C8E6002002400010024000B500F012
:1007C00017F808494968F02292FAA2F201F0F00104
:1007D000B2FA82F2D140044A515CC8400349086031
:1007E00000BD0000001002403C190008000000207D
:1007F00010B585B01AA0D0E90031D0E90220CDE9CA
:100800000131CDE903201AA000680090194B596806
:10081000194801F00C02042A1DD0082A1BD14FF4FC
:10082000701494FAA4F401F47012B4FA84F4E2405F
:1008300001ACA25CC90310D559684FF4003393FA98
:10084000A3F301F40031B3FA83F3D9401DF801108A
:10085000B0FBF1F0504305B010BD08485043FAE733
:1008600002030405060708090A0B0C0D0E0F1010F1
:10087000010200000010024000127A0000093D0051
:100880002DE9F84F0446F94D20784FF00106C007D6
:1008900075D068687704C0F38100012807D06868C4
:1008A000C0F3810002281DD16868C0031AD597FAE9
:1008B000A7F0B0FA80F040F02000400901D028688D
:1008C00000E0686A97FAA7F1B1FA81F101F01F021E
:1008D00006FA02F1084252D0606800284FD1012088
:1008E000BDE8F88F286820F480302860286820F45C
:1008F00080202860FFF768FD804607E0FFF764FD71
:10090000A0EB0800642801D90320E9E797FAA7F0D3
:10091000B0FA80F040F02000400901D0286800E0E3
:10092000686A97FAA7F1B1FA81F101F01F0106FA9E
:1009300001F10842E2D16068B0F5803F11D0A8B162
:10094000B0F5A02F1CD0286820F4803028602868DB
:1009500020F4802028606068C8B3FFF735FD80462A
:100960001FE0286840F480302860F4E7286820F40D
:1009700080302860286820F480202860EBE748E079
:10098000286840F480202860286840F4803028607F
:10099000E1E7FFF719FDA0EB0800642801D9032067
:1009A0009EE797FAA7F0B0FA80F040F020004009E7
:1009B00001D0286800E0686A97FAA7F1B1FA81F1DE
:1009C00001F01F0106FA01F10842E2D021E0FFE741
:1009D000FFF7FAFC804607E0FFF7F6FCA0EB080003
:1009E000642801D903207BE797FAA7F0B0FA80F0DA
:1009F00040F02000400901D0286800E0686A97FABA
:100A0000A7F1B1FA81F101F01F0106FA01F10842E4
:100A1000E2D12078DFF8588280074FF0000B4FF0CA
:100A2000020732D568684FF0F80A10F00C0F07D0B3
:100A30006868C0F38100022828D16868C00325D403
:100A400097FAA7F0B0FA80F040F02000400901D0FA
:100A5000286800E0686A97FAA7F1B1FA81F101F01D
:100A60001F0106FA01F1084204D02069012801D0D3
:100A7000012035E728689AFAAAF26169B2FA82F28F
:100A800020F0F8009140084328605CE0206990B3B2
:100A900096FAA6F0B0FA80F048F82060FFF794FCD0
:100AA000814607E0FFF790FCA0EB0900022801D97E
:100AB000032015E797FAA7F0B0FA80F040F0200085
:100AC000400901D0286800E0686A97FAA7F1B1FAF6
:100AD00081F101F01F0106FA01F10842E2D0286815
:100AE0009AFAAAF26169B2FA82F220F0F800914013
:100AF0000843286027E0FFE796FAA6F0B0FA80F0F6
:100B000048F820B0FFF760FC814607E0FFF75CFC87
:100B1000A0EB0900022801D90320E1E697FAA7F02B
:100B2000B0FA80F040F02000400901D0286800E0D1
:100B3000686A97FAA7F1B1FA81F101F01F0106FA8C
:100B400001F10842E2D12078000770D5A069C0B356
:100B500096FAA6F0B0FA80F008EB8000C0F8806446
:100B6000FFF732FC814607E0FFF72EFCA0EB0900FF
:100B7000022801D90320B3E697FAA7F0B0FA80F073
:100B800040F06000B6EB501F01D128680BE097FAE7
:100B9000A7F0B0FA80F040F06000B7EB501F01D131
:100BA000286A00E0686A97FAA7F1B1FA81F101F0CA
:100BB0001F0206FA02F10842D6D00120FFF7E8FA38
:100BC00035E0FFE796FAA6F0B0FA80F008EB800077
:100BD000C0F880B4FFF7F8FB814607E0FFF7F4FBAD
:100BE000A0EB0900022801D9032079E697FAA7F0C3
:100BF000B0FA80F040F06000B6EB501F01D12868D9
:100C00000BE097FAA7F0B0FA80F040F06000B7EB85
:100C1000501F01D1286A00E0686A97FAA7F1B1FA7B
:100C200081F101F01F0206FA02F10842D6D12078C4
:100C3000400770D5E86940F08050E861E86900F04D
:100C400080500090DFF82CA0DAF8000040F48070AB
:100C5000CAF80000FFF7B8FB81460DE0FFF7B4FBD0
:100C6000A0EB0900642807D9032039E600100240F0
:100C70000000424200700040DAF80000C005EDD5E7
:100C8000286A20F001002862286A20F00400286207
:100C9000FFF79AFB814641F2883A07E0FFF794FBA1
:100CA000A0EB0900504501D9032019E697FAA7F0F7
:100CB000B0FA80F040F04000B6EB501F01D1286838
:100CC0000BE097FAA7F0B0FA80F040F04000B7EBE5
:100CD000501F01D1286A00E0686A97FAA7F1B1FABB
:100CE00081F101F01F0106FA01F10842D6D1E06856
:100CF000012811D0A8B105281CD0286A20F00100D5
:100D00002862286A20F004002862E068C8B3FFF770
:100D10005BFB81461FE06EE0286A40F0010028621C
:100D2000F3E7286A20F001002862286A20F0040016
:100D30002862EAE7286A40F004002862286A40F046
:100D400001002862E1E7FFF73FFBA0EB09005045F7
:100D500001D90320C4E597FAA7F0B0FA80F040F07B
:100D60004000B6EB501F01D128680CE097FAA7F0BD
:100D7000B0FA80F040F04000B7EB501F02D1286A73
:100D800001E00BE0686A97FAA7F1B1FA81F101F08E
:100D90001F0206FA02F10842D5D02CE0FFF714FB3F
:100DA000814607E0FFF710FBA0EB0900504501D991
:100DB000032095E597FAA7F0B0FA80F040F04000E4
:100DC000B6EB501F01D128680BE097FAA7F0B0FAF4
:100DD00080F040F04000B7EB501F01D1286A00E0DE
:100DE000686A97FAA7F1B1FA81F101F01F0206FAD9
:100DF00002F10842D6D1E06980B36968C1F381018C
:100E0000022970D04FF080794FF00077022809D086
:100E100099FAA9F0B0FA80F048F820B0FFF7D4FAB8
:100E2000044668E099FAA9F0B0FA80F048F820B0DA
:100E3000FFF7CAFA824607E0FFF7C6FAA0EB0A00FE
:100E4000022801D903204BE597FAA7F0B0FA80F009
:100E500040F02000400902D0286801E060E0686AA4
:100E600097FAA7F1B1FA81F101F01F0106FA01F139
:100E70000842E1D1206AB0F5803F05D16868A168D9
:100E800020F4003008436860D4E908010843696829
:100E900021F474110843686099FAA9F0B0FA80F05F
:100EA00048F82060FFF790FA044606E0FFF78CFA56
:100EB000001B022801D9032012E597FAA7F0B0FA27
:100EC00080F040F02000400901D0296800E0696A04
:100ED00097FAA7F0B0FA80F000F01F0006FA00F0D1
:100EE0000142E3D01CE01DE0FFF76EFA001B022870
:100EF00001D90320F4E497FAA7F0B0FA80F040F0AB
:100F00002000400901D0296800E0696A97FAA7F03B
:100F1000B0FA80F000F01F0006FA00F00142E3D1C1
:100F20000020DDE40120DBE44FF0E021042804D0C0
:100F3000086920F0040008617047086940F0040067
:100F400008617047704710B5401EB0F1807F01D333
:100F5000012010BD4FF0E02460610F21601700F008
:100F600069FA0020A06107202061002010BD10B5A3
:100F7000FFF7E8FF10BD7047704730B590F8382094
:100F8000012A19D0012200F8382F02234370D1E939
:100F900000342343D1E902452C4323430C69234306
:100FA0004C69896923430B4350F8381C4B644270E9
:100FB00000210170002030BD022030BD30B590F816
:100FC0003820012A20D0012380F83830022280F80E
:100FD00039200268546824F0700454600268546830
:100FE0000D682C4354600268946824F08004946077
:100FF0000268946849680C43946080F83930002195
:1010000080F83810002030BD022030BD10B50446F5
:10101000002C03D094F8390010B107E0012010BD76
:10102000002084F83800204600F00CF8022084F8F4
:101030003900211D206800F00BFB012084F83900E5
:10104000002010BD08B500680649884208D106484E
:10105000816941F400618161806900F40060009061
:1010600008BD0000002C014000100240022180F861
:10107000391001680A6842F001020A60012180F813
:1010800039100020704770B5044694F838000128E4
:1010900017D0012584F83850022084F839002068E0
:1010A000826822F0770222F47F428260086850282A
:1010B0003AD00DDC20285FD005DCA0B3102864D125
:1010C00055E0022070BD30285BD040285DD13FE064
:1010D000602833D070280CD0B0F5805F03D0B0F515
:1010E000005F52D113E02068816821F00701816020
:1010F0004BE0CB68D1E90121206800F0F8FA2068C4
:10110000816821F0770141F0770181603DE0CB6893
:10111000D1E90121206800F0EAFA2068816841F4F1
:101120008041816031E01DE0CA684968206800F0B4
:10113000C1FB5021206800F0E4FA26E0CA68496843
:10114000206800F0C8FB6021206800F0DAFA1CE09B
:10115000CA684968206800F0ADFB4021206800F0B3
:10116000D0FA12E00021206800F0CBFA0DE0102147
:10117000206800F0C6FA08E02021206800F0C1FADB
:1011800003E03021206800F0BCFA3834657000209C
:10119000207070BD704770B50446206801694FF03B
:1011A0000005C943890716D4C168C943890712D409
:1011B000E91E01610120207620688069800703D044
:1011C0002046FFF7E7FF05E0204600F0C5F820467F
:1011D00000F02AF9257620680169C943490718D427
:1011E000C168C943490714D46FF0040101610220AA
:1011F00020762068806910F4407F03D02046FFF7F6
:10120000C9FF05E0204600F0A7F8204600F00CF9E1
:10121000257620680169C943090717D4C168C94305
:10122000090713D46FF008010161042020762068BB
:10123000C069800703D02046FFF7ACFF05E02046D9
:1012400000F08AF8204600F0EFF825762068016962
:10125000C943C90618D4C168C943C90614D46FF07C
:1012600010010161082020762068C06910F4407FD9
:1012700003D02046FFF78EFF05E0204600F06CF813
:10128000204600F0D1F8257620680169C943C907D6
:1012900008D1C168C943C90704D1891E016120462C
:1012A00000F0C3F820680169C943090609D4C16880
:1012B000C943090605D46FF0800101612046FFF79C
:1012C0005AFE20680169C943490609D4C168C94367
:1012D000490605D46FF040010161204600F0A6F8F0
:1012E00020680169C94389060BD4C168C9438906CE
:1012F00007D46FF0200101612046BDE87040FFF780
:101300003BBE70BD70B5044694F8380001280DD07E
:10131000012584F83850022084F8390042B1042AAB
:101320000AD0082A0CD00C2A11D10DE0022070BD81
:10133000206800F0EFF90AE0206800F01FFA06E0EC
:10134000206800F055FA02E0206800F089FA38348D
:1013500065700020207070BD08B505480068416ABE
:101360000091BDF80010034A12881144416308BD82
:101370000C0000200800002010B50446002C03D00B
:1013800094F8390010B107E0012010BD002084F866
:101390003800204600F00CF8022084F83900211DA6
:1013A000206800F055F9012084F83900002010BDB4
:1013B0007047000010B504460029226806D00429B1
:1013C00009D008290CD00C2913D10EE0D06840F0C8
:1013D0000200D0600DE0D06840F00400D06008E06A
:1013E000D06840F00800D06003E0D06840F0100002
:1013F000D0600122206800F06FF909492068884216
:1014000002D00849884203D1416C41F40041416453
:101410002068016841F001010160002010BD00005A
:10142000002C014000340140704770477047FEE7D0
:10143000FEE770470907090E002806DA00F00F00E2
:1014400000F1E02080F8141D704700F1E02080F8E2
:10145000001470472DE9F04186B02248816941F0BF
:1014600004018161816901F004010191816941F008
:1014700008018161816901F008010191816941F0F0
:1014800008018161806900F0080001904FF48070CC
:101490000290122003900324059402A91248FEF73B
:1014A00083FE4FF400550295112703970594DFF84A
:1014B0003C8002A94046FEF777FE6E000296039735
:1014C000059402A94046FEF76FFE012229464046D8
:1014D000FEF772FF012231464046FEF76DFF06B06F
:1014E000BDE8F0810010024000080140000C0140FE
:1014F00010B594B0244823490160032141600024C1
:1015000084604FF6FF71C16004614461FFF77EFDA6
:101510004FF48050109010A91B48FFF7B4FD1A48F3
:10152000FFF72AFF0E940F940EA91748FFF746FD08
:101530000794089409940A940B944FF400500C906B
:101540000D9407A91048FFF718FD302000900F48B0
:101550000088019002940820039004940594069456
:10156000002269460848FFF7CDFEFFF773FF00220F
:1015700011461B20FEF794FF1B20FEF785FF14B0D9
:1015800010BD0000002C01400C00002008000020CD
:1015900010B5FEF71FFFBDE81040FFF7E8BC30B5FF
:1015A0008FB00120059000040690002407940225C6
:1015B0000C950D904FF4E0100E9005A8FFF760F920
:1015C0000F20009001950294680203900494022178
:1015D0006846FEF797FFFFF7F1F84FF47A71B0FB1A
:1015E000F1F0FFF7B0FC0420FFF79EFC002211464B
:1015F000501EFEF755FF0FB030BD00000D480168CA
:1016000041F00101016041680B4A114041600168ED
:101610000A4A11400160016821F48021016041689B
:1016200021F4FE0141604FF41F0181600449C003B1
:1016300008607047001002400000FFF8FFFFF6FE50
:1016400008ED00E00148FFF7A6BD00000C000020F7
:101650002DE9F04102681B4D1B4E1C4FDFF870C096
:101660001C4B4FF08048A84209D0984207D0404513
:1016700005D0B04203D0B84201D0604503D122F07A
:1016800070044A682243A84209D0984207D04045D6
:1016900005D0B04203D0B84201D0604503D122F456
:1016A0004074CA68224302608A68C2620A68826221
:1016B000A84201D0984201D1096901630121416129
:1016C000BDE8F081002C014000040040000800400B
:1016D000000C00400034014010B501238B40046A27
:1016E0009C430462036A8A401343036210BD10B531
:1016F000846824F47F4442EA03220A43224382603E
:1017000010BD826822F070020A4342F00701816036
:1017100070470000F0B5026A22F001020262026A1C
:101720004368846924F0700424F003050C682C439A
:1017300022F002058A682A430E4E0F4FB04201D0B4
:10174000B84205D122F00805CA682A4322F00402F3
:10175000B04201D0B84207D123F4807323F4007360
:101760004D691D438B692B43436084614968416324
:101770000262F0BD002C014000340140F0B5026A65
:1017800022F010020262036A4268846924F4E04491
:1017900024F440740D6844EA052423F020038D6886
:1017A00043EA0513104D114EA84201D0B04206D1B4
:1017B00023F08003CF6843EA071323F04003A842D5
:1017C00001D0B04209D122F4806222F400624D6956
:1017D00042EA85028D6942EA850242608461496875
:1017E00081630362F0BD0000002C01400034014021
:1017F000F0B5026A22F480720262026A4368C46928
:1018000024F0700424F003050C682C4322F40072C9
:101810008D6842EA0522104D104EA84201D0B04218
:1018200006D122F40062CF6842EA072222F48062E5
:10183000A84201D0B04209D123F4805323F40053CD
:101840004D6943EA05138D6943EA05134360C4619A
:101850004968C1630262F0BD002C014000340140C0
:1018600030B5026A22F480520262046A4268C36997
:1018700023F4E04323F440730D6843EA052324F482
:1018800000548D6844EA0534084DA84202D0084D42
:10189000A84204D122F480424D6942EA8512426096
:1018A000C36149680164046230BD0000002C01403E
:1018B0000034014010B5036A046A24F00104046294
:1018C000846924F0F00444EA021423F00A020A4373
:1018D0008461026210BD10B5036A23F01003036235
:1018E0008469036A24F4704444EA023223F0A003BA
:1018F00043EA01118261016210BDFEE702E008C8FF
:10190000121F08C1002AFAD170477047002001E079
:1019100001C1121F002AFBD170470000FEF762FDD3
:10192000FFF73DFEFFF7E4FD0348FFF79FFB0021B3
:101930000148FFF73FFDFEE70C000020000000001B
:101940000102030401020304060708096C190008D8
:10195000000000200C000000FC18000878190008A6
:101960000C0000203C1000000C19000800A24A04E2
:0819700000000000F40100007A
:0400000508000131BD
:00000001FF
